{
	"contracts/ExapmleTryCatch.sol": {
		"ErrorHandeling": {
			"abi": [
				{
					"anonymous": false,
					"inputs": [
						{
							"indexed": false,
							"internalType": "bytes",
							"name": "lowLevelData",
							"type": "bytes"
						}
					],
					"name": "ErroLogBytes",
					"type": "event"
				},
				{
					"anonymous": false,
					"inputs": [
						{
							"indexed": false,
							"internalType": "string",
							"name": "reason",
							"type": "string"
						}
					],
					"name": "ErrorLogging",
					"type": "event"
				},
				{
					"inputs": [],
					"name": "catchTheError",
					"outputs": [],
					"stateMutability": "nonpayable",
					"type": "function"
				}
			],
			"devdoc": {
				"kind": "dev",
				"methods": {},
				"version": 1
			},
			"evm": {
				"assembly": "    /* \"contracts/ExapmleTryCatch.sol\":268:697  contract ErrorHandeling{... */\n  mstore(0x40, 0x80)\n  callvalue\n  dup1\n  iszero\n  tag_1\n  jumpi\n  0x00\n  dup1\n  revert\ntag_1:\n  pop\n  dataSize(sub_0)\n  dup1\n  dataOffset(sub_0)\n  0x00\n  codecopy\n  0x00\n  return\nstop\n\nsub_0: assembly {\n        /* \"contracts/ExapmleTryCatch.sol\":268:697  contract ErrorHandeling{... */\n      mstore(0x40, 0x80)\n      callvalue\n      dup1\n      iszero\n      tag_1\n      jumpi\n      0x00\n      dup1\n      revert\n    tag_1:\n      pop\n      jumpi(tag_2, lt(calldatasize, 0x04))\n      shr(0xe0, calldataload(0x00))\n      dup1\n      0x9e957cf8\n      eq\n      tag_3\n      jumpi\n    tag_2:\n      0x00\n      dup1\n      revert\n        /* \"contracts/ExapmleTryCatch.sol\":385:694  function catchTheError() public {... */\n    tag_3:\n      tag_4\n      tag_5\n      jump\t// in\n    tag_4:\n      stop\n    tag_5:\n        /* \"contracts/ExapmleTryCatch.sol\":428:442  WillThrow will */\n      0x00\n        /* \"contracts/ExapmleTryCatch.sol\":444:459  new WillThrow() */\n      mload(0x40)\n      tag_7\n      swap1\n      tag_8\n      jump\t// in\n    tag_7:\n      mload(0x40)\n      dup1\n      swap2\n      sub\n      swap1\n      0x00\n      create\n      dup1\n      iszero\n      dup1\n      iszero\n      tag_9\n      jumpi\n      returndatasize\n      0x00\n      dup1\n      returndatacopy\n      revert(0x00, returndatasize)\n    tag_9:\n      pop\n        /* \"contracts/ExapmleTryCatch.sol\":428:459  WillThrow will= new WillThrow() */\n      swap1\n      pop\n        /* \"contracts/ExapmleTryCatch.sol\":473:477  will */\n      dup1\n        /* \"contracts/ExapmleTryCatch.sol\":473:487  will.aFunction */\n      0xffffffffffffffffffffffffffffffffffffffff\n      and\n      0x39c117a4\n        /* \"contracts/ExapmleTryCatch.sol\":473:489  will.aFunction() */\n      mload(0x40)\n      dup2\n      0xffffffff\n      and\n      0xe0\n      shl\n      dup2\n      mstore\n      0x04\n      add\n      0x00\n      mload(0x40)\n      dup1\n      dup4\n      sub\n      dup2\n      dup7\n      dup1\n      extcodesize\n      iszero\n      dup1\n      iszero\n      tag_10\n      jumpi\n      0x00\n      dup1\n      revert\n    tag_10:\n      pop\n      gas\n      staticcall\n      swap3\n      pop\n      pop\n      pop\n      dup1\n      iszero\n      tag_11\n      jumpi\n      pop\n      0x01\n    tag_11:\n        /* \"contracts/ExapmleTryCatch.sol\":469:685  try will.aFunction(){... */\n      tag_12\n      jumpi\n      tag_16\n      tag_17\n      jump\t// in\n    tag_16:\n      dup1\n      0x08c379a0\n      sub\n      tag_15\n      jumpi\n      pop\n      tag_18\n      tag_19\n      jump\t// in\n    tag_18:\n      dup1\n      tag_20\n      jumpi\n      pop\n      jump(tag_14)\n    tag_20:\n        /* \"contracts/ExapmleTryCatch.sol\":568:588  ErrorLogging(reason) */\n      0xdcbe72357183be3854887085e70fd914c4c1733a94106878f48e8ba069d8fabc\n        /* \"contracts/ExapmleTryCatch.sol\":581:587  reason */\n      dup2\n        /* \"contracts/ExapmleTryCatch.sol\":568:588  ErrorLogging(reason) */\n      mload(0x40)\n      tag_21\n      swap2\n      swap1\n      tag_22\n      jump\t// in\n    tag_21:\n      mload(0x40)\n      dup1\n      swap2\n      sub\n      swap1\n      log1\n        /* \"contracts/ExapmleTryCatch.sol\":518:599  catch Error(string memory reason) {... */\n      pop\n        /* \"contracts/ExapmleTryCatch.sol\":469:685  try will.aFunction(){... */\n      jump(tag_13)\n    tag_15:\n      pop\n    tag_14:\n      returndatasize\n      dup1\n      0x00\n      dup2\n      eq\n      tag_24\n      jumpi\n      mload(0x40)\n      swap2\n      pop\n      and(add(returndatasize, 0x3f), not(0x1f))\n      dup3\n      add\n      0x40\n      mstore\n      returndatasize\n      dup3\n      mstore\n      returndatasize\n      0x00\n      0x20\n      dup5\n      add\n      returndatacopy\n      jump(tag_23)\n    tag_24:\n      0x60\n      swap2\n      pop\n    tag_23:\n      pop\n        /* \"contracts/ExapmleTryCatch.sol\":648:674  ErroLogBytes(lowLevelData) */\n      0xe5000507ccf51593e0c2240f12cc1394d9040f17cb551974db7991ad7dc8140f\n        /* \"contracts/ExapmleTryCatch.sol\":661:673  lowLevelData */\n      dup2\n        /* \"contracts/ExapmleTryCatch.sol\":648:674  ErroLogBytes(lowLevelData) */\n      mload(0x40)\n      tag_25\n      swap2\n      swap1\n      tag_26\n      jump\t// in\n    tag_25:\n      mload(0x40)\n      dup1\n      swap2\n      sub\n      swap1\n      log1\n        /* \"contracts/ExapmleTryCatch.sol\":600:685  catch(bytes memory lowLevelData){... */\n      pop\n        /* \"contracts/ExapmleTryCatch.sol\":469:685  try will.aFunction(){... */\n    tag_13:\n      jump(tag_27)\n    tag_12:\n    tag_27:\n        /* \"contracts/ExapmleTryCatch.sol\":417:694  {... */\n      pop\n        /* \"contracts/ExapmleTryCatch.sol\":385:694  function catchTheError() public {... */\n      jump\t// out\n    tag_8:\n      dataSize(sub_0)\n      dup1\n      dataOffset(sub_0)\n      dup4\n      codecopy\n      add\n      swap1\n      jump\t// out\n        /* \"#utility.yul\":7:113   */\n    tag_28:\n        /* \"#utility.yul\":51:59   */\n      0x00\n        /* \"#utility.yul\":100:105   */\n      dup2\n        /* \"#utility.yul\":95:98   */\n      0xe0\n        /* \"#utility.yul\":91:106   */\n      shr\n        /* \"#utility.yul\":70:106   */\n      swap1\n      pop\n        /* \"#utility.yul\":7:113   */\n      swap2\n      swap1\n      pop\n      jump\t// out\n        /* \"#utility.yul\":119:302   */\n    tag_17:\n        /* \"#utility.yul\":154:157   */\n      0x00\n        /* \"#utility.yul\":192:193   */\n      0x03\n        /* \"#utility.yul\":174:190   */\n      returndatasize\n        /* \"#utility.yul\":171:194   */\n      gt\n        /* \"#utility.yul\":168:296   */\n      iszero\n      tag_43\n      jumpi\n        /* \"#utility.yul\":230:231   */\n      0x04\n        /* \"#utility.yul\":227:228   */\n      0x00\n        /* \"#utility.yul\":224:225   */\n      dup1\n        /* \"#utility.yul\":209:232   */\n      returndatacopy\n        /* \"#utility.yul\":252:286   */\n      tag_44\n        /* \"#utility.yul\":283:284   */\n      0x00\n        /* \"#utility.yul\":277:285   */\n      mload\n        /* \"#utility.yul\":252:286   */\n      tag_28\n      jump\t// in\n    tag_44:\n        /* \"#utility.yul\":245:286   */\n      swap1\n      pop\n        /* \"#utility.yul\":168:296   */\n    tag_43:\n        /* \"#utility.yul\":119:302   */\n      swap1\n      jump\t// out\n        /* \"#utility.yul\":308:383   */\n    tag_29:\n        /* \"#utility.yul\":341:347   */\n      0x00\n        /* \"#utility.yul\":374:376   */\n      0x40\n        /* \"#utility.yul\":368:377   */\n      mload\n        /* \"#utility.yul\":358:377   */\n      swap1\n      pop\n        /* \"#utility.yul\":308:383   */\n      swap1\n      jump\t// out\n        /* \"#utility.yul\":389:491   */\n    tag_30:\n        /* \"#utility.yul\":430:436   */\n      0x00\n        /* \"#utility.yul\":481:483   */\n      0x1f\n        /* \"#utility.yul\":477:484   */\n      not\n        /* \"#utility.yul\":472:474   */\n      0x1f\n        /* \"#utility.yul\":465:470   */\n      dup4\n        /* \"#utility.yul\":461:475   */\n      add\n        /* \"#utility.yul\":457:485   */\n      and\n        /* \"#utility.yul\":447:485   */\n      swap1\n      pop\n        /* \"#utility.yul\":389:491   */\n      swap2\n      swap1\n      pop\n      jump\t// out\n        /* \"#utility.yul\":497:677   */\n    tag_31:\n        /* \"#utility.yul\":545:622   */\n      0x4e487b7100000000000000000000000000000000000000000000000000000000\n        /* \"#utility.yul\":542:543   */\n      0x00\n        /* \"#utility.yul\":535:623   */\n      mstore\n        /* \"#utility.yul\":642:646   */\n      0x41\n        /* \"#utility.yul\":639:640   */\n      0x04\n        /* \"#utility.yul\":632:647   */\n      mstore\n        /* \"#utility.yul\":666:670   */\n      0x24\n        /* \"#utility.yul\":663:664   */\n      0x00\n        /* \"#utility.yul\":656:671   */\n      revert\n        /* \"#utility.yul\":683:964   */\n    tag_32:\n        /* \"#utility.yul\":766:793   */\n      tag_49\n        /* \"#utility.yul\":788:792   */\n      dup3\n        /* \"#utility.yul\":766:793   */\n      tag_30\n      jump\t// in\n    tag_49:\n        /* \"#utility.yul\":758:764   */\n      dup2\n        /* \"#utility.yul\":754:794   */\n      add\n        /* \"#utility.yul\":896:902   */\n      dup2\n        /* \"#utility.yul\":884:894   */\n      dup2\n        /* \"#utility.yul\":881:903   */\n      lt\n        /* \"#utility.yul\":860:878   */\n      0xffffffffffffffff\n        /* \"#utility.yul\":848:858   */\n      dup3\n        /* \"#utility.yul\":845:879   */\n      gt\n        /* \"#utility.yul\":842:904   */\n      or\n        /* \"#utility.yul\":839:927   */\n      iszero\n      tag_50\n      jumpi\n        /* \"#utility.yul\":907:925   */\n      tag_51\n      tag_31\n      jump\t// in\n    tag_51:\n        /* \"#utility.yul\":839:927   */\n    tag_50:\n        /* \"#utility.yul\":947:957   */\n      dup1\n        /* \"#utility.yul\":943:945   */\n      0x40\n        /* \"#utility.yul\":936:958   */\n      mstore\n        /* \"#utility.yul\":726:964   */\n      pop\n        /* \"#utility.yul\":683:964   */\n      pop\n      pop\n      jump\t// out\n        /* \"#utility.yul\":970:1681   */\n    tag_19:\n        /* \"#utility.yul\":1009:1012   */\n      0x00\n        /* \"#utility.yul\":1047:1051   */\n      0x44\n        /* \"#utility.yul\":1029:1045   */\n      returndatasize\n        /* \"#utility.yul\":1026:1052   */\n      lt\n        /* \"#utility.yul\":1055:1060   */\n      tag_52\n        /* \"#utility.yul\":1023:1062   */\n      jumpi\n        /* \"#utility.yul\":1084:1104   */\n      tag_54\n      tag_29\n      jump\t// in\n    tag_54:\n        /* \"#utility.yul\":1159:1160   */\n      0x04\n        /* \"#utility.yul\":1141:1157   */\n      returndatasize\n        /* \"#utility.yul\":1137:1161   */\n      sub\n        /* \"#utility.yul\":1134:1135   */\n      0x04\n        /* \"#utility.yul\":1128:1132   */\n      dup3\n        /* \"#utility.yul\":1113:1162   */\n      returndatacopy\n        /* \"#utility.yul\":1192:1196   */\n      dup1\n        /* \"#utility.yul\":1186:1197   */\n      mload\n        /* \"#utility.yul\":1291:1307   */\n      returndatasize\n        /* \"#utility.yul\":1284:1288   */\n      0x24\n        /* \"#utility.yul\":1276:1282   */\n      dup3\n        /* \"#utility.yul\":1272:1289   */\n      add\n        /* \"#utility.yul\":1269:1308   */\n      gt\n        /* \"#utility.yul\":1236:1254   */\n      0xffffffffffffffff\n        /* \"#utility.yul\":1228:1234   */\n      dup3\n        /* \"#utility.yul\":1225:1255   */\n      gt\n        /* \"#utility.yul\":1209:1322   */\n      or\n        /* \"#utility.yul\":1206:1352   */\n      iszero\n      tag_55\n      jumpi\n        /* \"#utility.yul\":1337:1342   */\n      pop\n      pop\n      jump(tag_52)\n        /* \"#utility.yul\":1206:1352   */\n    tag_55:\n        /* \"#utility.yul\":1383:1389   */\n      dup1\n        /* \"#utility.yul\":1377:1381   */\n      dup3\n        /* \"#utility.yul\":1373:1390   */\n      add\n        /* \"#utility.yul\":1419:1422   */\n      dup1\n        /* \"#utility.yul\":1413:1423   */\n      mload\n        /* \"#utility.yul\":1446:1464   */\n      0xffffffffffffffff\n        /* \"#utility.yul\":1438:1444   */\n      dup2\n        /* \"#utility.yul\":1435:1465   */\n      gt\n        /* \"#utility.yul\":1432:1475   */\n      iszero\n      tag_56\n      jumpi\n        /* \"#utility.yul\":1468:1473   */\n      pop\n      pop\n      pop\n      pop\n      jump(tag_52)\n        /* \"#utility.yul\":1432:1475   */\n    tag_56:\n        /* \"#utility.yul\":1516:1522   */\n      dup1\n        /* \"#utility.yul\":1509:1513   */\n      0x20\n        /* \"#utility.yul\":1504:1507   */\n      dup4\n        /* \"#utility.yul\":1500:1514   */\n      add\n        /* \"#utility.yul\":1496:1523   */\n      add\n        /* \"#utility.yul\":1575:1576   */\n      0x04\n        /* \"#utility.yul\":1557:1573   */\n      returndatasize\n        /* \"#utility.yul\":1553:1577   */\n      sub\n        /* \"#utility.yul\":1547:1551   */\n      dup6\n        /* \"#utility.yul\":1543:1578   */\n      add\n        /* \"#utility.yul\":1538:1541   */\n      dup2\n        /* \"#utility.yul\":1535:1579   */\n      gt\n        /* \"#utility.yul\":1532:1589   */\n      iszero\n      tag_57\n      jumpi\n        /* \"#utility.yul\":1582:1587   */\n      pop\n      pop\n      pop\n      pop\n      pop\n      jump(tag_52)\n        /* \"#utility.yul\":1532:1589   */\n    tag_57:\n        /* \"#utility.yul\":1599:1656   */\n      tag_58\n        /* \"#utility.yul\":1647:1653   */\n      dup3\n        /* \"#utility.yul\":1641:1645   */\n      0x20\n        /* \"#utility.yul\":1637:1654   */\n      add\n        /* \"#utility.yul\":1629:1635   */\n      dup6\n        /* \"#utility.yul\":1625:1655   */\n      add\n        /* \"#utility.yul\":1619:1623   */\n      dup7\n        /* \"#utility.yul\":1599:1656   */\n      tag_32\n      jump\t// in\n    tag_58:\n        /* \"#utility.yul\":1672:1675   */\n      dup3\n        /* \"#utility.yul\":1665:1675   */\n      swap6\n      pop\n        /* \"#utility.yul\":1013:1681   */\n      pop\n      pop\n      pop\n      pop\n      pop\n        /* \"#utility.yul\":970:1681   */\n    tag_52:\n      swap1\n      jump\t// out\n        /* \"#utility.yul\":1687:1786   */\n    tag_33:\n        /* \"#utility.yul\":1739:1745   */\n      0x00\n        /* \"#utility.yul\":1773:1778   */\n      dup2\n        /* \"#utility.yul\":1767:1779   */\n      mload\n        /* \"#utility.yul\":1757:1779   */\n      swap1\n      pop\n        /* \"#utility.yul\":1687:1786   */\n      swap2\n      swap1\n      pop\n      jump\t// out\n        /* \"#utility.yul\":1792:1961   */\n    tag_34:\n        /* \"#utility.yul\":1876:1887   */\n      0x00\n        /* \"#utility.yul\":1910:1916   */\n      dup3\n        /* \"#utility.yul\":1905:1908   */\n      dup3\n        /* \"#utility.yul\":1898:1917   */\n      mstore\n        /* \"#utility.yul\":1950:1954   */\n      0x20\n        /* \"#utility.yul\":1945:1948   */\n      dup3\n        /* \"#utility.yul\":1941:1955   */\n      add\n        /* \"#utility.yul\":1926:1955   */\n      swap1\n      pop\n        /* \"#utility.yul\":1792:1961   */\n      swap3\n      swap2\n      pop\n      pop\n      jump\t// out\n        /* \"#utility.yul\":1967:2274   */\n    tag_35:\n        /* \"#utility.yul\":2035:2036   */\n      0x00\n        /* \"#utility.yul\":2045:2158   */\n    tag_62:\n        /* \"#utility.yul\":2059:2065   */\n      dup4\n        /* \"#utility.yul\":2056:2057   */\n      dup2\n        /* \"#utility.yul\":2053:2066   */\n      lt\n        /* \"#utility.yul\":2045:2158   */\n      iszero\n      tag_64\n      jumpi\n        /* \"#utility.yul\":2144:2145   */\n      dup1\n        /* \"#utility.yul\":2139:2142   */\n      dup3\n        /* \"#utility.yul\":2135:2146   */\n      add\n        /* \"#utility.yul\":2129:2147   */\n      mload\n        /* \"#utility.yul\":2125:2126   */\n      dup2\n        /* \"#utility.yul\":2120:2123   */\n      dup5\n        /* \"#utility.yul\":2116:2127   */\n      add\n        /* \"#utility.yul\":2109:2148   */\n      mstore\n        /* \"#utility.yul\":2081:2083   */\n      0x20\n        /* \"#utility.yul\":2078:2079   */\n      dup2\n        /* \"#utility.yul\":2074:2084   */\n      add\n        /* \"#utility.yul\":2069:2084   */\n      swap1\n      pop\n        /* \"#utility.yul\":2045:2158   */\n      jump(tag_62)\n    tag_64:\n        /* \"#utility.yul\":2176:2182   */\n      dup4\n        /* \"#utility.yul\":2173:2174   */\n      dup2\n        /* \"#utility.yul\":2170:2183   */\n      gt\n        /* \"#utility.yul\":2167:2268   */\n      iszero\n      tag_65\n      jumpi\n        /* \"#utility.yul\":2256:2257   */\n      0x00\n        /* \"#utility.yul\":2247:2253   */\n      dup5\n        /* \"#utility.yul\":2242:2245   */\n      dup5\n        /* \"#utility.yul\":2238:2254   */\n      add\n        /* \"#utility.yul\":2231:2258   */\n      mstore\n        /* \"#utility.yul\":2167:2268   */\n    tag_65:\n        /* \"#utility.yul\":2016:2274   */\n      pop\n        /* \"#utility.yul\":1967:2274   */\n      pop\n      pop\n      pop\n      jump\t// out\n        /* \"#utility.yul\":2280:2644   */\n    tag_36:\n        /* \"#utility.yul\":2368:2371   */\n      0x00\n        /* \"#utility.yul\":2396:2435   */\n      tag_67\n        /* \"#utility.yul\":2429:2434   */\n      dup3\n        /* \"#utility.yul\":2396:2435   */\n      tag_33\n      jump\t// in\n    tag_67:\n        /* \"#utility.yul\":2451:2522   */\n      tag_68\n        /* \"#utility.yul\":2515:2521   */\n      dup2\n        /* \"#utility.yul\":2510:2513   */\n      dup6\n        /* \"#utility.yul\":2451:2522   */\n      tag_34\n      jump\t// in\n    tag_68:\n        /* \"#utility.yul\":2444:2522   */\n      swap4\n      pop\n        /* \"#utility.yul\":2531:2583   */\n      tag_69\n        /* \"#utility.yul\":2576:2582   */\n      dup2\n        /* \"#utility.yul\":2571:2574   */\n      dup6\n        /* \"#utility.yul\":2564:2568   */\n      0x20\n        /* \"#utility.yul\":2557:2562   */\n      dup7\n        /* \"#utility.yul\":2553:2569   */\n      add\n        /* \"#utility.yul\":2531:2583   */\n      tag_35\n      jump\t// in\n    tag_69:\n        /* \"#utility.yul\":2608:2637   */\n      tag_70\n        /* \"#utility.yul\":2630:2636   */\n      dup2\n        /* \"#utility.yul\":2608:2637   */\n      tag_30\n      jump\t// in\n    tag_70:\n        /* \"#utility.yul\":2603:2606   */\n      dup5\n        /* \"#utility.yul\":2599:2638   */\n      add\n        /* \"#utility.yul\":2592:2638   */\n      swap2\n      pop\n        /* \"#utility.yul\":2372:2644   */\n      pop\n        /* \"#utility.yul\":2280:2644   */\n      swap3\n      swap2\n      pop\n      pop\n      jump\t// out\n        /* \"#utility.yul\":2650:2963   */\n    tag_22:\n        /* \"#utility.yul\":2763:2767   */\n      0x00\n        /* \"#utility.yul\":2801:2803   */\n      0x20\n        /* \"#utility.yul\":2790:2799   */\n      dup3\n        /* \"#utility.yul\":2786:2804   */\n      add\n        /* \"#utility.yul\":2778:2804   */\n      swap1\n      pop\n        /* \"#utility.yul\":2850:2859   */\n      dup2\n        /* \"#utility.yul\":2844:2848   */\n      dup2\n        /* \"#utility.yul\":2840:2860   */\n      sub\n        /* \"#utility.yul\":2836:2837   */\n      0x00\n        /* \"#utility.yul\":2825:2834   */\n      dup4\n        /* \"#utility.yul\":2821:2838   */\n      add\n        /* \"#utility.yul\":2814:2861   */\n      mstore\n        /* \"#utility.yul\":2878:2956   */\n      tag_72\n        /* \"#utility.yul\":2951:2955   */\n      dup2\n        /* \"#utility.yul\":2942:2948   */\n      dup5\n        /* \"#utility.yul\":2878:2956   */\n      tag_36\n      jump\t// in\n    tag_72:\n        /* \"#utility.yul\":2870:2956   */\n      swap1\n      pop\n        /* \"#utility.yul\":2650:2963   */\n      swap3\n      swap2\n      pop\n      pop\n      jump\t// out\n        /* \"#utility.yul\":2969:3067   */\n    tag_37:\n        /* \"#utility.yul\":3020:3026   */\n      0x00\n        /* \"#utility.yul\":3054:3059   */\n      dup2\n        /* \"#utility.yul\":3048:3060   */\n      mload\n        /* \"#utility.yul\":3038:3060   */\n      swap1\n      pop\n        /* \"#utility.yul\":2969:3067   */\n      swap2\n      swap1\n      pop\n      jump\t// out\n        /* \"#utility.yul\":3073:3241   */\n    tag_38:\n        /* \"#utility.yul\":3156:3167   */\n      0x00\n        /* \"#utility.yul\":3190:3196   */\n      dup3\n        /* \"#utility.yul\":3185:3188   */\n      dup3\n        /* \"#utility.yul\":3178:3197   */\n      mstore\n        /* \"#utility.yul\":3230:3234   */\n      0x20\n        /* \"#utility.yul\":3225:3228   */\n      dup3\n        /* \"#utility.yul\":3221:3235   */\n      add\n        /* \"#utility.yul\":3206:3235   */\n      swap1\n      pop\n        /* \"#utility.yul\":3073:3241   */\n      swap3\n      swap2\n      pop\n      pop\n      jump\t// out\n        /* \"#utility.yul\":3247:3607   */\n    tag_39:\n        /* \"#utility.yul\":3333:3336   */\n      0x00\n        /* \"#utility.yul\":3361:3399   */\n      tag_76\n        /* \"#utility.yul\":3393:3398   */\n      dup3\n        /* \"#utility.yul\":3361:3399   */\n      tag_37\n      jump\t// in\n    tag_76:\n        /* \"#utility.yul\":3415:3485   */\n      tag_77\n        /* \"#utility.yul\":3478:3484   */\n      dup2\n        /* \"#utility.yul\":3473:3476   */\n      dup6\n        /* \"#utility.yul\":3415:3485   */\n      tag_38\n      jump\t// in\n    tag_77:\n        /* \"#utility.yul\":3408:3485   */\n      swap4\n      pop\n        /* \"#utility.yul\":3494:3546   */\n      tag_78\n        /* \"#utility.yul\":3539:3545   */\n      dup2\n        /* \"#utility.yul\":3534:3537   */\n      dup6\n        /* \"#utility.yul\":3527:3531   */\n      0x20\n        /* \"#utility.yul\":3520:3525   */\n      dup7\n        /* \"#utility.yul\":3516:3532   */\n      add\n        /* \"#utility.yul\":3494:3546   */\n      tag_35\n      jump\t// in\n    tag_78:\n        /* \"#utility.yul\":3571:3600   */\n      tag_79\n        /* \"#utility.yul\":3593:3599   */\n      dup2\n        /* \"#utility.yul\":3571:3600   */\n      tag_30\n      jump\t// in\n    tag_79:\n        /* \"#utility.yul\":3566:3569   */\n      dup5\n        /* \"#utility.yul\":3562:3601   */\n      add\n        /* \"#utility.yul\":3555:3601   */\n      swap2\n      pop\n        /* \"#utility.yul\":3337:3607   */\n      pop\n        /* \"#utility.yul\":3247:3607   */\n      swap3\n      swap2\n      pop\n      pop\n      jump\t// out\n        /* \"#utility.yul\":3613:3922   */\n    tag_26:\n        /* \"#utility.yul\":3724:3728   */\n      0x00\n        /* \"#utility.yul\":3762:3764   */\n      0x20\n        /* \"#utility.yul\":3751:3760   */\n      dup3\n        /* \"#utility.yul\":3747:3765   */\n      add\n        /* \"#utility.yul\":3739:3765   */\n      swap1\n      pop\n        /* \"#utility.yul\":3811:3820   */\n      dup2\n        /* \"#utility.yul\":3805:3809   */\n      dup2\n        /* \"#utility.yul\":3801:3821   */\n      sub\n        /* \"#utility.yul\":3797:3798   */\n      0x00\n        /* \"#utility.yul\":3786:3795   */\n      dup4\n        /* \"#utility.yul\":3782:3799   */\n      add\n        /* \"#utility.yul\":3775:3822   */\n      mstore\n        /* \"#utility.yul\":3839:3915   */\n      tag_81\n        /* \"#utility.yul\":3910:3914   */\n      dup2\n        /* \"#utility.yul\":3901:3907   */\n      dup5\n        /* \"#utility.yul\":3839:3915   */\n      tag_39\n      jump\t// in\n    tag_81:\n        /* \"#utility.yul\":3831:3915   */\n      swap1\n      pop\n        /* \"#utility.yul\":3613:3922   */\n      swap3\n      swap2\n      pop\n      pop\n      jump\t// out\n    stop\n\n    sub_0: assembly {\n            /* \"contracts/ExapmleTryCatch.sol\":61:264  contract WillThrow {... */\n          mstore(0x40, 0x80)\n          callvalue\n          dup1\n          iszero\n          tag_1\n          jumpi\n          0x00\n          dup1\n          revert\n        tag_1:\n          pop\n          dataSize(sub_0)\n          dup1\n          dataOffset(sub_0)\n          0x00\n          codecopy\n          0x00\n          return\n        stop\n\n        sub_0: assembly {\n                /* \"contracts/ExapmleTryCatch.sol\":61:264  contract WillThrow {... */\n              mstore(0x40, 0x80)\n              callvalue\n              dup1\n              iszero\n              tag_1\n              jumpi\n              0x00\n              dup1\n              revert\n            tag_1:\n              pop\n              jumpi(tag_2, lt(calldatasize, 0x04))\n              shr(0xe0, calldataload(0x00))\n              dup1\n              0x39c117a4\n              eq\n              tag_3\n              jumpi\n            tag_2:\n              0x00\n              dup1\n              revert\n                /* \"contracts/ExapmleTryCatch.sol\":123:261  function aFunction() public pure{... */\n            tag_3:\n              tag_4\n              tag_5\n              jump\t// in\n            tag_4:\n              stop\n            tag_5:\n                /* \"contracts/ExapmleTryCatch.sol\":174:179  false */\n              0x00\n                /* \"contracts/ExapmleTryCatch.sol\":166:197  require(false, \"Error message\") */\n              tag_7\n              jumpi\n              mload(0x40)\n              0x08c379a000000000000000000000000000000000000000000000000000000000\n              dup2\n              mstore\n              0x04\n              add\n              tag_8\n              swap1\n              tag_9\n              jump\t// in\n            tag_8:\n              mload(0x40)\n              dup1\n              swap2\n              sub\n              swap1\n              revert\n            tag_7:\n                /* \"contracts/ExapmleTryCatch.sol\":215:253  NorAllowedError(\"You are not allowed\") */\n              mload(0x40)\n              0x99121e9b00000000000000000000000000000000000000000000000000000000\n              dup2\n              mstore\n              0x04\n              add\n              tag_10\n              swap1\n              tag_11\n              jump\t// in\n            tag_10:\n              mload(0x40)\n              dup1\n              swap2\n              sub\n              swap1\n              revert\n                /* \"#utility.yul\":7:176   */\n            tag_12:\n                /* \"#utility.yul\":91:102   */\n              0x00\n                /* \"#utility.yul\":125:131   */\n              dup3\n                /* \"#utility.yul\":120:123   */\n              dup3\n                /* \"#utility.yul\":113:132   */\n              mstore\n                /* \"#utility.yul\":165:169   */\n              0x20\n                /* \"#utility.yul\":160:163   */\n              dup3\n                /* \"#utility.yul\":156:170   */\n              add\n                /* \"#utility.yul\":141:170   */\n              swap1\n              pop\n                /* \"#utility.yul\":7:176   */\n              swap3\n              swap2\n              pop\n              pop\n              jump\t// out\n                /* \"#utility.yul\":182:345   */\n            tag_13:\n                /* \"#utility.yul\":322:337   */\n              0x4572726f72206d65737361676500000000000000000000000000000000000000\n                /* \"#utility.yul\":318:319   */\n              0x00\n                /* \"#utility.yul\":310:316   */\n              dup3\n                /* \"#utility.yul\":306:320   */\n              add\n                /* \"#utility.yul\":299:338   */\n              mstore\n                /* \"#utility.yul\":182:345   */\n              pop\n              jump\t// out\n                /* \"#utility.yul\":351:717   */\n            tag_14:\n                /* \"#utility.yul\":493:496   */\n              0x00\n                /* \"#utility.yul\":514:581   */\n              tag_21\n                /* \"#utility.yul\":578:580   */\n              0x0d\n                /* \"#utility.yul\":573:576   */\n              dup4\n                /* \"#utility.yul\":514:581   */\n              tag_12\n              jump\t// in\n            tag_21:\n                /* \"#utility.yul\":507:581   */\n              swap2\n              pop\n                /* \"#utility.yul\":590:683   */\n              tag_22\n                /* \"#utility.yul\":679:682   */\n              dup3\n                /* \"#utility.yul\":590:683   */\n              tag_13\n              jump\t// in\n            tag_22:\n                /* \"#utility.yul\":708:710   */\n              0x20\n                /* \"#utility.yul\":703:706   */\n              dup3\n                /* \"#utility.yul\":699:711   */\n              add\n                /* \"#utility.yul\":692:711   */\n              swap1\n              pop\n                /* \"#utility.yul\":351:717   */\n              swap2\n              swap1\n              pop\n              jump\t// out\n                /* \"#utility.yul\":723:1142   */\n            tag_9:\n                /* \"#utility.yul\":889:893   */\n              0x00\n                /* \"#utility.yul\":927:929   */\n              0x20\n                /* \"#utility.yul\":916:925   */\n              dup3\n                /* \"#utility.yul\":912:930   */\n              add\n                /* \"#utility.yul\":904:930   */\n              swap1\n              pop\n                /* \"#utility.yul\":976:985   */\n              dup2\n                /* \"#utility.yul\":970:974   */\n              dup2\n                /* \"#utility.yul\":966:986   */\n              sub\n                /* \"#utility.yul\":962:963   */\n              0x00\n                /* \"#utility.yul\":951:960   */\n              dup4\n                /* \"#utility.yul\":947:964   */\n              add\n                /* \"#utility.yul\":940:987   */\n              mstore\n                /* \"#utility.yul\":1004:1135   */\n              tag_24\n                /* \"#utility.yul\":1130:1134   */\n              dup2\n                /* \"#utility.yul\":1004:1135   */\n              tag_14\n              jump\t// in\n            tag_24:\n                /* \"#utility.yul\":996:1135   */\n              swap1\n              pop\n                /* \"#utility.yul\":723:1142   */\n              swap2\n              swap1\n              pop\n              jump\t// out\n                /* \"#utility.yul\":1148:1317   */\n            tag_15:\n                /* \"#utility.yul\":1288:1309   */\n              0x596f7520617265206e6f7420616c6c6f77656400000000000000000000000000\n                /* \"#utility.yul\":1284:1285   */\n              0x00\n                /* \"#utility.yul\":1276:1282   */\n              dup3\n                /* \"#utility.yul\":1272:1286   */\n              add\n                /* \"#utility.yul\":1265:1310   */\n              mstore\n                /* \"#utility.yul\":1148:1317   */\n              pop\n              jump\t// out\n                /* \"#utility.yul\":1323:1689   */\n            tag_16:\n                /* \"#utility.yul\":1465:1468   */\n              0x00\n                /* \"#utility.yul\":1486:1553   */\n              tag_27\n                /* \"#utility.yul\":1550:1552   */\n              0x13\n                /* \"#utility.yul\":1545:1548   */\n              dup4\n                /* \"#utility.yul\":1486:1553   */\n              tag_12\n              jump\t// in\n            tag_27:\n                /* \"#utility.yul\":1479:1553   */\n              swap2\n              pop\n                /* \"#utility.yul\":1562:1655   */\n              tag_28\n                /* \"#utility.yul\":1651:1654   */\n              dup3\n                /* \"#utility.yul\":1562:1655   */\n              tag_15\n              jump\t// in\n            tag_28:\n                /* \"#utility.yul\":1680:1682   */\n              0x20\n                /* \"#utility.yul\":1675:1678   */\n              dup3\n                /* \"#utility.yul\":1671:1683   */\n              add\n                /* \"#utility.yul\":1664:1683   */\n              swap1\n              pop\n                /* \"#utility.yul\":1323:1689   */\n              swap2\n              swap1\n              pop\n              jump\t// out\n                /* \"#utility.yul\":1695:2114   */\n            tag_11:\n                /* \"#utility.yul\":1861:1865   */\n              0x00\n                /* \"#utility.yul\":1899:1901   */\n              0x20\n                /* \"#utility.yul\":1888:1897   */\n              dup3\n                /* \"#utility.yul\":1884:1902   */\n              add\n                /* \"#utility.yul\":1876:1902   */\n              swap1\n              pop\n                /* \"#utility.yul\":1948:1957   */\n              dup2\n                /* \"#utility.yul\":1942:1946   */\n              dup2\n                /* \"#utility.yul\":1938:1958   */\n              sub\n                /* \"#utility.yul\":1934:1935   */\n              0x00\n                /* \"#utility.yul\":1923:1932   */\n              dup4\n                /* \"#utility.yul\":1919:1936   */\n              add\n                /* \"#utility.yul\":1912:1959   */\n              mstore\n                /* \"#utility.yul\":1976:2107   */\n              tag_30\n                /* \"#utility.yul\":2102:2106   */\n              dup2\n                /* \"#utility.yul\":1976:2107   */\n              tag_16\n              jump\t// in\n            tag_30:\n                /* \"#utility.yul\":1968:2107   */\n              swap1\n              pop\n                /* \"#utility.yul\":1695:2114   */\n              swap2\n              swap1\n              pop\n              jump\t// out\n\n            auxdata: 0xa26469706673582212209584a2f1de45dc6c27f0937bde47c64c22135cd2cde8d04cfce5bcd095619c0764736f6c634300080f0033\n        }\n    }\n\n    auxdata: 0xa26469706673582212201291256b7d2fe141295be7e2483ee44c2316c8a88b66d98bb79011ce55fb078364736f6c634300080f0033\n}\n",
				"bytecode": {
					"linkReferences": {},
					"object": "608060405234801561001057600080fd5b5061062f806100206000396000f3fe608060405234801561001057600080fd5b506004361061002b5760003560e01c80639e957cf814610030575b600080fd5b61003861003a565b005b60006040516100489061019c565b604051809103906000f080158015610064573d6000803e3d6000fd5b5090508073ffffffffffffffffffffffffffffffffffffffff166339c117a46040518163ffffffff1660e01b815260040160006040518083038186803b1580156100ad57600080fd5b505afa9250505080156100be575060015b610198576100ca6101b6565b806308c379a00361012657506100de610253565b806100e95750610128565b7fdcbe72357183be3854887085e70fd914c4c1733a94106878f48e8ba069d8fabc81604051610118919061036b565b60405180910390a150610193565b505b3d8060008114610154576040519150601f19603f3d011682016040523d82523d6000602084013e610159565b606091505b507fe5000507ccf51593e0c2240f12cc1394d9040f17cb551974db7991ad7dc8140f8160405161018991906103e2565b60405180910390a1505b610199565b5b50565b6101f58061040583390190565b60008160e01c9050919050565b600060033d11156101d55760046000803e6101d26000516101a9565b90505b90565b6000604051905090565b6000601f19601f8301169050919050565b7f4e487b7100000000000000000000000000000000000000000000000000000000600052604160045260246000fd5b61022b826101e2565b810181811067ffffffffffffffff8211171561024a576102496101f3565b5b80604052505050565b600060443d106102e0576102656101d8565b60043d036004823e80513d602482011167ffffffffffffffff8211171561028d5750506102e0565b808201805167ffffffffffffffff8111156102ab57505050506102e0565b80602083010160043d0385018111156102c85750505050506102e0565b6102d782602001850186610222565b82955050505050505b90565b600081519050919050565b600082825260208201905092915050565b60005b8381101561031d578082015181840152602081019050610302565b8381111561032c576000848401525b50505050565b600061033d826102e3565b61034781856102ee565b93506103578185602086016102ff565b610360816101e2565b840191505092915050565b600060208201905081810360008301526103858184610332565b905092915050565b600081519050919050565b600082825260208201905092915050565b60006103b48261038d565b6103be8185610398565b93506103ce8185602086016102ff565b6103d7816101e2565b840191505092915050565b600060208201905081810360008301526103fc81846103a9565b90509291505056fe608060405234801561001057600080fd5b506101d5806100206000396000f3fe608060405234801561001057600080fd5b506004361061002b5760003560e01c806339c117a414610030575b600080fd5b61003861003a565b005b600061007b576040517f08c379a000000000000000000000000000000000000000000000000000000000815260040161007290610113565b60405180910390fd5b6040517f99121e9b0000000000000000000000000000000000000000000000000000000081526004016100ad9061017f565b60405180910390fd5b600082825260208201905092915050565b7f4572726f72206d65737361676500000000000000000000000000000000000000600082015250565b60006100fd600d836100b6565b9150610108826100c7565b602082019050919050565b6000602082019050818103600083015261012c816100f0565b9050919050565b7f596f7520617265206e6f7420616c6c6f77656400000000000000000000000000600082015250565b60006101696013836100b6565b915061017482610133565b602082019050919050565b600060208201905081810360008301526101988161015c565b905091905056fea26469706673582212209584a2f1de45dc6c27f0937bde47c64c22135cd2cde8d04cfce5bcd095619c0764736f6c634300080f0033a26469706673582212201291256b7d2fe141295be7e2483ee44c2316c8a88b66d98bb79011ce55fb078364736f6c634300080f0033",
					"opcodes": "PUSH1 0x80 PUSH1 0x40 MSTORE CALLVALUE DUP1 ISZERO PUSH2 0x10 JUMPI PUSH1 0x0 DUP1 REVERT JUMPDEST POP PUSH2 0x62F DUP1 PUSH2 0x20 PUSH1 0x0 CODECOPY PUSH1 0x0 RETURN INVALID PUSH1 0x80 PUSH1 0x40 MSTORE CALLVALUE DUP1 ISZERO PUSH2 0x10 JUMPI PUSH1 0x0 DUP1 REVERT JUMPDEST POP PUSH1 0x4 CALLDATASIZE LT PUSH2 0x2B JUMPI PUSH1 0x0 CALLDATALOAD PUSH1 0xE0 SHR DUP1 PUSH4 0x9E957CF8 EQ PUSH2 0x30 JUMPI JUMPDEST PUSH1 0x0 DUP1 REVERT JUMPDEST PUSH2 0x38 PUSH2 0x3A JUMP JUMPDEST STOP JUMPDEST PUSH1 0x0 PUSH1 0x40 MLOAD PUSH2 0x48 SWAP1 PUSH2 0x19C JUMP JUMPDEST PUSH1 0x40 MLOAD DUP1 SWAP2 SUB SWAP1 PUSH1 0x0 CREATE DUP1 ISZERO DUP1 ISZERO PUSH2 0x64 JUMPI RETURNDATASIZE PUSH1 0x0 DUP1 RETURNDATACOPY RETURNDATASIZE PUSH1 0x0 REVERT JUMPDEST POP SWAP1 POP DUP1 PUSH20 0xFFFFFFFFFFFFFFFFFFFFFFFFFFFFFFFFFFFFFFFF AND PUSH4 0x39C117A4 PUSH1 0x40 MLOAD DUP2 PUSH4 0xFFFFFFFF AND PUSH1 0xE0 SHL DUP2 MSTORE PUSH1 0x4 ADD PUSH1 0x0 PUSH1 0x40 MLOAD DUP1 DUP4 SUB DUP2 DUP7 DUP1 EXTCODESIZE ISZERO DUP1 ISZERO PUSH2 0xAD JUMPI PUSH1 0x0 DUP1 REVERT JUMPDEST POP GAS STATICCALL SWAP3 POP POP POP DUP1 ISZERO PUSH2 0xBE JUMPI POP PUSH1 0x1 JUMPDEST PUSH2 0x198 JUMPI PUSH2 0xCA PUSH2 0x1B6 JUMP JUMPDEST DUP1 PUSH4 0x8C379A0 SUB PUSH2 0x126 JUMPI POP PUSH2 0xDE PUSH2 0x253 JUMP JUMPDEST DUP1 PUSH2 0xE9 JUMPI POP PUSH2 0x128 JUMP JUMPDEST PUSH32 0xDCBE72357183BE3854887085E70FD914C4C1733A94106878F48E8BA069D8FABC DUP2 PUSH1 0x40 MLOAD PUSH2 0x118 SWAP2 SWAP1 PUSH2 0x36B JUMP JUMPDEST PUSH1 0x40 MLOAD DUP1 SWAP2 SUB SWAP1 LOG1 POP PUSH2 0x193 JUMP JUMPDEST POP JUMPDEST RETURNDATASIZE DUP1 PUSH1 0x0 DUP2 EQ PUSH2 0x154 JUMPI PUSH1 0x40 MLOAD SWAP2 POP PUSH1 0x1F NOT PUSH1 0x3F RETURNDATASIZE ADD AND DUP3 ADD PUSH1 0x40 MSTORE RETURNDATASIZE DUP3 MSTORE RETURNDATASIZE PUSH1 0x0 PUSH1 0x20 DUP5 ADD RETURNDATACOPY PUSH2 0x159 JUMP JUMPDEST PUSH1 0x60 SWAP2 POP JUMPDEST POP PUSH32 0xE5000507CCF51593E0C2240F12CC1394D9040F17CB551974DB7991AD7DC8140F DUP2 PUSH1 0x40 MLOAD PUSH2 0x189 SWAP2 SWAP1 PUSH2 0x3E2 JUMP JUMPDEST PUSH1 0x40 MLOAD DUP1 SWAP2 SUB SWAP1 LOG1 POP JUMPDEST PUSH2 0x199 JUMP JUMPDEST JUMPDEST POP JUMP JUMPDEST PUSH2 0x1F5 DUP1 PUSH2 0x405 DUP4 CODECOPY ADD SWAP1 JUMP JUMPDEST PUSH1 0x0 DUP2 PUSH1 0xE0 SHR SWAP1 POP SWAP2 SWAP1 POP JUMP JUMPDEST PUSH1 0x0 PUSH1 0x3 RETURNDATASIZE GT ISZERO PUSH2 0x1D5 JUMPI PUSH1 0x4 PUSH1 0x0 DUP1 RETURNDATACOPY PUSH2 0x1D2 PUSH1 0x0 MLOAD PUSH2 0x1A9 JUMP JUMPDEST SWAP1 POP JUMPDEST SWAP1 JUMP JUMPDEST PUSH1 0x0 PUSH1 0x40 MLOAD SWAP1 POP SWAP1 JUMP JUMPDEST PUSH1 0x0 PUSH1 0x1F NOT PUSH1 0x1F DUP4 ADD AND SWAP1 POP SWAP2 SWAP1 POP JUMP JUMPDEST PUSH32 0x4E487B7100000000000000000000000000000000000000000000000000000000 PUSH1 0x0 MSTORE PUSH1 0x41 PUSH1 0x4 MSTORE PUSH1 0x24 PUSH1 0x0 REVERT JUMPDEST PUSH2 0x22B DUP3 PUSH2 0x1E2 JUMP JUMPDEST DUP2 ADD DUP2 DUP2 LT PUSH8 0xFFFFFFFFFFFFFFFF DUP3 GT OR ISZERO PUSH2 0x24A JUMPI PUSH2 0x249 PUSH2 0x1F3 JUMP JUMPDEST JUMPDEST DUP1 PUSH1 0x40 MSTORE POP POP POP JUMP JUMPDEST PUSH1 0x0 PUSH1 0x44 RETURNDATASIZE LT PUSH2 0x2E0 JUMPI PUSH2 0x265 PUSH2 0x1D8 JUMP JUMPDEST PUSH1 0x4 RETURNDATASIZE SUB PUSH1 0x4 DUP3 RETURNDATACOPY DUP1 MLOAD RETURNDATASIZE PUSH1 0x24 DUP3 ADD GT PUSH8 0xFFFFFFFFFFFFFFFF DUP3 GT OR ISZERO PUSH2 0x28D JUMPI POP POP PUSH2 0x2E0 JUMP JUMPDEST DUP1 DUP3 ADD DUP1 MLOAD PUSH8 0xFFFFFFFFFFFFFFFF DUP2 GT ISZERO PUSH2 0x2AB JUMPI POP POP POP POP PUSH2 0x2E0 JUMP JUMPDEST DUP1 PUSH1 0x20 DUP4 ADD ADD PUSH1 0x4 RETURNDATASIZE SUB DUP6 ADD DUP2 GT ISZERO PUSH2 0x2C8 JUMPI POP POP POP POP POP PUSH2 0x2E0 JUMP JUMPDEST PUSH2 0x2D7 DUP3 PUSH1 0x20 ADD DUP6 ADD DUP7 PUSH2 0x222 JUMP JUMPDEST DUP3 SWAP6 POP POP POP POP POP POP JUMPDEST SWAP1 JUMP JUMPDEST PUSH1 0x0 DUP2 MLOAD SWAP1 POP SWAP2 SWAP1 POP JUMP JUMPDEST PUSH1 0x0 DUP3 DUP3 MSTORE PUSH1 0x20 DUP3 ADD SWAP1 POP SWAP3 SWAP2 POP POP JUMP JUMPDEST PUSH1 0x0 JUMPDEST DUP4 DUP2 LT ISZERO PUSH2 0x31D JUMPI DUP1 DUP3 ADD MLOAD DUP2 DUP5 ADD MSTORE PUSH1 0x20 DUP2 ADD SWAP1 POP PUSH2 0x302 JUMP JUMPDEST DUP4 DUP2 GT ISZERO PUSH2 0x32C JUMPI PUSH1 0x0 DUP5 DUP5 ADD MSTORE JUMPDEST POP POP POP POP JUMP JUMPDEST PUSH1 0x0 PUSH2 0x33D DUP3 PUSH2 0x2E3 JUMP JUMPDEST PUSH2 0x347 DUP2 DUP6 PUSH2 0x2EE JUMP JUMPDEST SWAP4 POP PUSH2 0x357 DUP2 DUP6 PUSH1 0x20 DUP7 ADD PUSH2 0x2FF JUMP JUMPDEST PUSH2 0x360 DUP2 PUSH2 0x1E2 JUMP JUMPDEST DUP5 ADD SWAP2 POP POP SWAP3 SWAP2 POP POP JUMP JUMPDEST PUSH1 0x0 PUSH1 0x20 DUP3 ADD SWAP1 POP DUP2 DUP2 SUB PUSH1 0x0 DUP4 ADD MSTORE PUSH2 0x385 DUP2 DUP5 PUSH2 0x332 JUMP JUMPDEST SWAP1 POP SWAP3 SWAP2 POP POP JUMP JUMPDEST PUSH1 0x0 DUP2 MLOAD SWAP1 POP SWAP2 SWAP1 POP JUMP JUMPDEST PUSH1 0x0 DUP3 DUP3 MSTORE PUSH1 0x20 DUP3 ADD SWAP1 POP SWAP3 SWAP2 POP POP JUMP JUMPDEST PUSH1 0x0 PUSH2 0x3B4 DUP3 PUSH2 0x38D JUMP JUMPDEST PUSH2 0x3BE DUP2 DUP6 PUSH2 0x398 JUMP JUMPDEST SWAP4 POP PUSH2 0x3CE DUP2 DUP6 PUSH1 0x20 DUP7 ADD PUSH2 0x2FF JUMP JUMPDEST PUSH2 0x3D7 DUP2 PUSH2 0x1E2 JUMP JUMPDEST DUP5 ADD SWAP2 POP POP SWAP3 SWAP2 POP POP JUMP JUMPDEST PUSH1 0x0 PUSH1 0x20 DUP3 ADD SWAP1 POP DUP2 DUP2 SUB PUSH1 0x0 DUP4 ADD MSTORE PUSH2 0x3FC DUP2 DUP5 PUSH2 0x3A9 JUMP JUMPDEST SWAP1 POP SWAP3 SWAP2 POP POP JUMP INVALID PUSH1 0x80 PUSH1 0x40 MSTORE CALLVALUE DUP1 ISZERO PUSH2 0x10 JUMPI PUSH1 0x0 DUP1 REVERT JUMPDEST POP PUSH2 0x1D5 DUP1 PUSH2 0x20 PUSH1 0x0 CODECOPY PUSH1 0x0 RETURN INVALID PUSH1 0x80 PUSH1 0x40 MSTORE CALLVALUE DUP1 ISZERO PUSH2 0x10 JUMPI PUSH1 0x0 DUP1 REVERT JUMPDEST POP PUSH1 0x4 CALLDATASIZE LT PUSH2 0x2B JUMPI PUSH1 0x0 CALLDATALOAD PUSH1 0xE0 SHR DUP1 PUSH4 0x39C117A4 EQ PUSH2 0x30 JUMPI JUMPDEST PUSH1 0x0 DUP1 REVERT JUMPDEST PUSH2 0x38 PUSH2 0x3A JUMP JUMPDEST STOP JUMPDEST PUSH1 0x0 PUSH2 0x7B JUMPI PUSH1 0x40 MLOAD PUSH32 0x8C379A000000000000000000000000000000000000000000000000000000000 DUP2 MSTORE PUSH1 0x4 ADD PUSH2 0x72 SWAP1 PUSH2 0x113 JUMP JUMPDEST PUSH1 0x40 MLOAD DUP1 SWAP2 SUB SWAP1 REVERT JUMPDEST PUSH1 0x40 MLOAD PUSH32 0x99121E9B00000000000000000000000000000000000000000000000000000000 DUP2 MSTORE PUSH1 0x4 ADD PUSH2 0xAD SWAP1 PUSH2 0x17F JUMP JUMPDEST PUSH1 0x40 MLOAD DUP1 SWAP2 SUB SWAP1 REVERT JUMPDEST PUSH1 0x0 DUP3 DUP3 MSTORE PUSH1 0x20 DUP3 ADD SWAP1 POP SWAP3 SWAP2 POP POP JUMP JUMPDEST PUSH32 0x4572726F72206D65737361676500000000000000000000000000000000000000 PUSH1 0x0 DUP3 ADD MSTORE POP JUMP JUMPDEST PUSH1 0x0 PUSH2 0xFD PUSH1 0xD DUP4 PUSH2 0xB6 JUMP JUMPDEST SWAP2 POP PUSH2 0x108 DUP3 PUSH2 0xC7 JUMP JUMPDEST PUSH1 0x20 DUP3 ADD SWAP1 POP SWAP2 SWAP1 POP JUMP JUMPDEST PUSH1 0x0 PUSH1 0x20 DUP3 ADD SWAP1 POP DUP2 DUP2 SUB PUSH1 0x0 DUP4 ADD MSTORE PUSH2 0x12C DUP2 PUSH2 0xF0 JUMP JUMPDEST SWAP1 POP SWAP2 SWAP1 POP JUMP JUMPDEST PUSH32 0x596F7520617265206E6F7420616C6C6F77656400000000000000000000000000 PUSH1 0x0 DUP3 ADD MSTORE POP JUMP JUMPDEST PUSH1 0x0 PUSH2 0x169 PUSH1 0x13 DUP4 PUSH2 0xB6 JUMP JUMPDEST SWAP2 POP PUSH2 0x174 DUP3 PUSH2 0x133 JUMP JUMPDEST PUSH1 0x20 DUP3 ADD SWAP1 POP SWAP2 SWAP1 POP JUMP JUMPDEST PUSH1 0x0 PUSH1 0x20 DUP3 ADD SWAP1 POP DUP2 DUP2 SUB PUSH1 0x0 DUP4 ADD MSTORE PUSH2 0x198 DUP2 PUSH2 0x15C JUMP JUMPDEST SWAP1 POP SWAP2 SWAP1 POP JUMP INVALID LOG2 PUSH5 0x6970667358 0x22 SLT KECCAK256 SWAP6 DUP5 LOG2 CALL 0xDE GASLIMIT 0xDC PUSH13 0x27F0937BDE47C64C22135CD2CD 0xE8 0xD0 0x4C 0xFC 0xE5 0xBC 0xD0 SWAP6 PUSH2 0x9C07 PUSH5 0x736F6C6343 STOP ADDMOD 0xF STOP CALLER LOG2 PUSH5 0x6970667358 0x22 SLT KECCAK256 SLT SWAP2 0x25 PUSH12 0x7D2FE141295BE7E2483EE44C 0x23 AND 0xC8 0xA8 DUP12 PUSH7 0xD98BB79011CE55 0xFB SMOD DUP4 PUSH5 0x736F6C6343 STOP ADDMOD 0xF STOP CALLER "
				},
				"gasEstimates": {
					"creation": {
						"codeDepositCost": "316600",
						"executionCost": "355",
						"totalCost": "316955"
					},
					"external": {
						"catchTheError()": "infinite"
					}
				},
				"methodIdentifiers": {
					"catchTheError()": "9e957cf8"
				}
			},
			"storageLayout": {
				"storage": [],
				"types": null
			},
			"userdoc": {
				"kind": "user",
				"methods": {},
				"version": 1
			}
		}
	}
}