{
	"contracts/ExapmleTryCatch.sol": {
		"WillThrow": {
			"abi": [
				{
					"inputs": [
						{
							"internalType": "string",
							"name": "",
							"type": "string"
						}
					],
					"name": "NorAllowedError",
					"type": "error"
				},
				{
					"inputs": [],
					"name": "aFunction",
					"outputs": [],
					"stateMutability": "pure",
					"type": "function"
				}
			],
			"devdoc": {
				"kind": "dev",
				"methods": {},
				"version": 1
			},
			"evm": {
				"assembly": "    /* \"contracts/ExapmleTryCatch.sol\":61:264  contract WillThrow {... */\n  mstore(0x40, 0x80)\n  callvalue\n  dup1\n  iszero\n  tag_1\n  jumpi\n  0x00\n  dup1\n  revert\ntag_1:\n  pop\n  dataSize(sub_0)\n  dup1\n  dataOffset(sub_0)\n  0x00\n  codecopy\n  0x00\n  return\nstop\n\nsub_0: assembly {\n        /* \"contracts/ExapmleTryCatch.sol\":61:264  contract WillThrow {... */\n      mstore(0x40, 0x80)\n      callvalue\n      dup1\n      iszero\n      tag_1\n      jumpi\n      0x00\n      dup1\n      revert\n    tag_1:\n      pop\n      jumpi(tag_2, lt(calldatasize, 0x04))\n      shr(0xe0, calldataload(0x00))\n      dup1\n      0x39c117a4\n      eq\n      tag_3\n      jumpi\n    tag_2:\n      0x00\n      dup1\n      revert\n        /* \"contracts/ExapmleTryCatch.sol\":123:261  function aFunction() public pure{... */\n    tag_3:\n      tag_4\n      tag_5\n      jump\t// in\n    tag_4:\n      stop\n    tag_5:\n        /* \"contracts/ExapmleTryCatch.sol\":174:179  false */\n      0x00\n        /* \"contracts/ExapmleTryCatch.sol\":166:197  require(false, \"Error message\") */\n      tag_7\n      jumpi\n      mload(0x40)\n      0x08c379a000000000000000000000000000000000000000000000000000000000\n      dup2\n      mstore\n      0x04\n      add\n      tag_8\n      swap1\n      tag_9\n      jump\t// in\n    tag_8:\n      mload(0x40)\n      dup1\n      swap2\n      sub\n      swap1\n      revert\n    tag_7:\n        /* \"contracts/ExapmleTryCatch.sol\":215:253  NorAllowedError(\"You are not allowed\") */\n      mload(0x40)\n      0x99121e9b00000000000000000000000000000000000000000000000000000000\n      dup2\n      mstore\n      0x04\n      add\n      tag_10\n      swap1\n      tag_11\n      jump\t// in\n    tag_10:\n      mload(0x40)\n      dup1\n      swap2\n      sub\n      swap1\n      revert\n        /* \"#utility.yul\":7:176   */\n    tag_12:\n        /* \"#utility.yul\":91:102   */\n      0x00\n        /* \"#utility.yul\":125:131   */\n      dup3\n        /* \"#utility.yul\":120:123   */\n      dup3\n        /* \"#utility.yul\":113:132   */\n      mstore\n        /* \"#utility.yul\":165:169   */\n      0x20\n        /* \"#utility.yul\":160:163   */\n      dup3\n        /* \"#utility.yul\":156:170   */\n      add\n        /* \"#utility.yul\":141:170   */\n      swap1\n      pop\n        /* \"#utility.yul\":7:176   */\n      swap3\n      swap2\n      pop\n      pop\n      jump\t// out\n        /* \"#utility.yul\":182:345   */\n    tag_13:\n        /* \"#utility.yul\":322:337   */\n      0x4572726f72206d65737361676500000000000000000000000000000000000000\n        /* \"#utility.yul\":318:319   */\n      0x00\n        /* \"#utility.yul\":310:316   */\n      dup3\n        /* \"#utility.yul\":306:320   */\n      add\n        /* \"#utility.yul\":299:338   */\n      mstore\n        /* \"#utility.yul\":182:345   */\n      pop\n      jump\t// out\n        /* \"#utility.yul\":351:717   */\n    tag_14:\n        /* \"#utility.yul\":493:496   */\n      0x00\n        /* \"#utility.yul\":514:581   */\n      tag_21\n        /* \"#utility.yul\":578:580   */\n      0x0d\n        /* \"#utility.yul\":573:576   */\n      dup4\n        /* \"#utility.yul\":514:581   */\n      tag_12\n      jump\t// in\n    tag_21:\n        /* \"#utility.yul\":507:581   */\n      swap2\n      pop\n        /* \"#utility.yul\":590:683   */\n      tag_22\n        /* \"#utility.yul\":679:682   */\n      dup3\n        /* \"#utility.yul\":590:683   */\n      tag_13\n      jump\t// in\n    tag_22:\n        /* \"#utility.yul\":708:710   */\n      0x20\n        /* \"#utility.yul\":703:706   */\n      dup3\n        /* \"#utility.yul\":699:711   */\n      add\n        /* \"#utility.yul\":692:711   */\n      swap1\n      pop\n        /* \"#utility.yul\":351:717   */\n      swap2\n      swap1\n      pop\n      jump\t// out\n        /* \"#utility.yul\":723:1142   */\n    tag_9:\n        /* \"#utility.yul\":889:893   */\n      0x00\n        /* \"#utility.yul\":927:929   */\n      0x20\n        /* \"#utility.yul\":916:925   */\n      dup3\n        /* \"#utility.yul\":912:930   */\n      add\n        /* \"#utility.yul\":904:930   */\n      swap1\n      pop\n        /* \"#utility.yul\":976:985   */\n      dup2\n        /* \"#utility.yul\":970:974   */\n      dup2\n        /* \"#utility.yul\":966:986   */\n      sub\n        /* \"#utility.yul\":962:963   */\n      0x00\n        /* \"#utility.yul\":951:960   */\n      dup4\n        /* \"#utility.yul\":947:964   */\n      add\n        /* \"#utility.yul\":940:987   */\n      mstore\n        /* \"#utility.yul\":1004:1135   */\n      tag_24\n        /* \"#utility.yul\":1130:1134   */\n      dup2\n        /* \"#utility.yul\":1004:1135   */\n      tag_14\n      jump\t// in\n    tag_24:\n        /* \"#utility.yul\":996:1135   */\n      swap1\n      pop\n        /* \"#utility.yul\":723:1142   */\n      swap2\n      swap1\n      pop\n      jump\t// out\n        /* \"#utility.yul\":1148:1317   */\n    tag_15:\n        /* \"#utility.yul\":1288:1309   */\n      0x596f7520617265206e6f7420616c6c6f77656400000000000000000000000000\n        /* \"#utility.yul\":1284:1285   */\n      0x00\n        /* \"#utility.yul\":1276:1282   */\n      dup3\n        /* \"#utility.yul\":1272:1286   */\n      add\n        /* \"#utility.yul\":1265:1310   */\n      mstore\n        /* \"#utility.yul\":1148:1317   */\n      pop\n      jump\t// out\n        /* \"#utility.yul\":1323:1689   */\n    tag_16:\n        /* \"#utility.yul\":1465:1468   */\n      0x00\n        /* \"#utility.yul\":1486:1553   */\n      tag_27\n        /* \"#utility.yul\":1550:1552   */\n      0x13\n        /* \"#utility.yul\":1545:1548   */\n      dup4\n        /* \"#utility.yul\":1486:1553   */\n      tag_12\n      jump\t// in\n    tag_27:\n        /* \"#utility.yul\":1479:1553   */\n      swap2\n      pop\n        /* \"#utility.yul\":1562:1655   */\n      tag_28\n        /* \"#utility.yul\":1651:1654   */\n      dup3\n        /* \"#utility.yul\":1562:1655   */\n      tag_15\n      jump\t// in\n    tag_28:\n        /* \"#utility.yul\":1680:1682   */\n      0x20\n        /* \"#utility.yul\":1675:1678   */\n      dup3\n        /* \"#utility.yul\":1671:1683   */\n      add\n        /* \"#utility.yul\":1664:1683   */\n      swap1\n      pop\n        /* \"#utility.yul\":1323:1689   */\n      swap2\n      swap1\n      pop\n      jump\t// out\n        /* \"#utility.yul\":1695:2114   */\n    tag_11:\n        /* \"#utility.yul\":1861:1865   */\n      0x00\n        /* \"#utility.yul\":1899:1901   */\n      0x20\n        /* \"#utility.yul\":1888:1897   */\n      dup3\n        /* \"#utility.yul\":1884:1902   */\n      add\n        /* \"#utility.yul\":1876:1902   */\n      swap1\n      pop\n        /* \"#utility.yul\":1948:1957   */\n      dup2\n        /* \"#utility.yul\":1942:1946   */\n      dup2\n        /* \"#utility.yul\":1938:1958   */\n      sub\n        /* \"#utility.yul\":1934:1935   */\n      0x00\n        /* \"#utility.yul\":1923:1932   */\n      dup4\n        /* \"#utility.yul\":1919:1936   */\n      add\n        /* \"#utility.yul\":1912:1959   */\n      mstore\n        /* \"#utility.yul\":1976:2107   */\n      tag_30\n        /* \"#utility.yul\":2102:2106   */\n      dup2\n        /* \"#utility.yul\":1976:2107   */\n      tag_16\n      jump\t// in\n    tag_30:\n        /* \"#utility.yul\":1968:2107   */\n      swap1\n      pop\n        /* \"#utility.yul\":1695:2114   */\n      swap2\n      swap1\n      pop\n      jump\t// out\n\n    auxdata: 0xa26469706673582212209584a2f1de45dc6c27f0937bde47c64c22135cd2cde8d04cfce5bcd095619c0764736f6c634300080f0033\n}\n",
				"bytecode": {
					"linkReferences": {},
					"object": "608060405234801561001057600080fd5b506101d5806100206000396000f3fe608060405234801561001057600080fd5b506004361061002b5760003560e01c806339c117a414610030575b600080fd5b61003861003a565b005b600061007b576040517f08c379a000000000000000000000000000000000000000000000000000000000815260040161007290610113565b60405180910390fd5b6040517f99121e9b0000000000000000000000000000000000000000000000000000000081526004016100ad9061017f565b60405180910390fd5b600082825260208201905092915050565b7f4572726f72206d65737361676500000000000000000000000000000000000000600082015250565b60006100fd600d836100b6565b9150610108826100c7565b602082019050919050565b6000602082019050818103600083015261012c816100f0565b9050919050565b7f596f7520617265206e6f7420616c6c6f77656400000000000000000000000000600082015250565b60006101696013836100b6565b915061017482610133565b602082019050919050565b600060208201905081810360008301526101988161015c565b905091905056fea26469706673582212209584a2f1de45dc6c27f0937bde47c64c22135cd2cde8d04cfce5bcd095619c0764736f6c634300080f0033",
					"opcodes": "PUSH1 0x80 PUSH1 0x40 MSTORE CALLVALUE DUP1 ISZERO PUSH2 0x10 JUMPI PUSH1 0x0 DUP1 REVERT JUMPDEST POP PUSH2 0x1D5 DUP1 PUSH2 0x20 PUSH1 0x0 CODECOPY PUSH1 0x0 RETURN INVALID PUSH1 0x80 PUSH1 0x40 MSTORE CALLVALUE DUP1 ISZERO PUSH2 0x10 JUMPI PUSH1 0x0 DUP1 REVERT JUMPDEST POP PUSH1 0x4 CALLDATASIZE LT PUSH2 0x2B JUMPI PUSH1 0x0 CALLDATALOAD PUSH1 0xE0 SHR DUP1 PUSH4 0x39C117A4 EQ PUSH2 0x30 JUMPI JUMPDEST PUSH1 0x0 DUP1 REVERT JUMPDEST PUSH2 0x38 PUSH2 0x3A JUMP JUMPDEST STOP JUMPDEST PUSH1 0x0 PUSH2 0x7B JUMPI PUSH1 0x40 MLOAD PUSH32 0x8C379A000000000000000000000000000000000000000000000000000000000 DUP2 MSTORE PUSH1 0x4 ADD PUSH2 0x72 SWAP1 PUSH2 0x113 JUMP JUMPDEST PUSH1 0x40 MLOAD DUP1 SWAP2 SUB SWAP1 REVERT JUMPDEST PUSH1 0x40 MLOAD PUSH32 0x99121E9B00000000000000000000000000000000000000000000000000000000 DUP2 MSTORE PUSH1 0x4 ADD PUSH2 0xAD SWAP1 PUSH2 0x17F JUMP JUMPDEST PUSH1 0x40 MLOAD DUP1 SWAP2 SUB SWAP1 REVERT JUMPDEST PUSH1 0x0 DUP3 DUP3 MSTORE PUSH1 0x20 DUP3 ADD SWAP1 POP SWAP3 SWAP2 POP POP JUMP JUMPDEST PUSH32 0x4572726F72206D65737361676500000000000000000000000000000000000000 PUSH1 0x0 DUP3 ADD MSTORE POP JUMP JUMPDEST PUSH1 0x0 PUSH2 0xFD PUSH1 0xD DUP4 PUSH2 0xB6 JUMP JUMPDEST SWAP2 POP PUSH2 0x108 DUP3 PUSH2 0xC7 JUMP JUMPDEST PUSH1 0x20 DUP3 ADD SWAP1 POP SWAP2 SWAP1 POP JUMP JUMPDEST PUSH1 0x0 PUSH1 0x20 DUP3 ADD SWAP1 POP DUP2 DUP2 SUB PUSH1 0x0 DUP4 ADD MSTORE PUSH2 0x12C DUP2 PUSH2 0xF0 JUMP JUMPDEST SWAP1 POP SWAP2 SWAP1 POP JUMP JUMPDEST PUSH32 0x596F7520617265206E6F7420616C6C6F77656400000000000000000000000000 PUSH1 0x0 DUP3 ADD MSTORE POP JUMP JUMPDEST PUSH1 0x0 PUSH2 0x169 PUSH1 0x13 DUP4 PUSH2 0xB6 JUMP JUMPDEST SWAP2 POP PUSH2 0x174 DUP3 PUSH2 0x133 JUMP JUMPDEST PUSH1 0x20 DUP3 ADD SWAP1 POP SWAP2 SWAP1 POP JUMP JUMPDEST PUSH1 0x0 PUSH1 0x20 DUP3 ADD SWAP1 POP DUP2 DUP2 SUB PUSH1 0x0 DUP4 ADD MSTORE PUSH2 0x198 DUP2 PUSH2 0x15C JUMP JUMPDEST SWAP1 POP SWAP2 SWAP1 POP JUMP INVALID LOG2 PUSH5 0x6970667358 0x22 SLT KECCAK256 SWAP6 DUP5 LOG2 CALL 0xDE GASLIMIT 0xDC PUSH13 0x27F0937BDE47C64C22135CD2CD 0xE8 0xD0 0x4C 0xFC 0xE5 0xBC 0xD0 SWAP6 PUSH2 0x9C07 PUSH5 0x736F6C6343 STOP ADDMOD 0xF STOP CALLER "
				},
				"gasEstimates": {
					"creation": {
						"codeDepositCost": "93800",
						"executionCost": "141",
						"totalCost": "93941"
					},
					"external": {
						"aFunction()": "428"
					}
				},
				"methodIdentifiers": {
					"aFunction()": "39c117a4"
				}
			},
			"storageLayout": {
				"storage": [],
				"types": null
			},
			"userdoc": {
				"kind": "user",
				"methods": {},
				"version": 1
			}
		}
	}
}